{
  "address": "0x101F34DD8B3B831E1579D5Cb62221bbdA11186A2",
  "abi": [
    {
      "inputs": [
        {
          "internalType": "contract IGelatoSysAdmin",
          "name": "_gelatoCore",
          "type": "address"
        },
        {
          "internalType": "contract IERC20",
          "name": "_weth",
          "type": "address"
        },
        {
          "internalType": "contract IUniswapV2Router02",
          "name": "_uniRouter",
          "type": "address"
        },
        {
          "internalType": "contract OracleAggregator",
          "name": "_oracleAggregator",
          "type": "address"
        }
      ],
      "stateMutability": "nonpayable",
      "type": "constructor"
    },
    {
      "anonymous": false,
      "inputs": [
        {
          "indexed": false,
          "internalType": "address",
          "name": "origin",
          "type": "address"
        },
        {
          "indexed": false,
          "internalType": "address",
          "name": "sendToken",
          "type": "address"
        },
        {
          "indexed": false,
          "internalType": "uint256",
          "name": "sendAmount",
          "type": "uint256"
        },
        {
          "indexed": false,
          "internalType": "address",
          "name": "destination",
          "type": "address"
        }
      ],
      "name": "LogOneWay",
      "type": "event"
    },
    {
      "anonymous": false,
      "inputs": [
        {
          "indexed": false,
          "internalType": "address",
          "name": "origin",
          "type": "address"
        },
        {
          "indexed": false,
          "internalType": "address",
          "name": "sendToken",
          "type": "address"
        },
        {
          "indexed": false,
          "internalType": "uint256",
          "name": "sendAmount",
          "type": "uint256"
        },
        {
          "indexed": false,
          "internalType": "address",
          "name": "destination",
          "type": "address"
        },
        {
          "indexed": false,
          "internalType": "address",
          "name": "receiveToken",
          "type": "address"
        },
        {
          "indexed": false,
          "internalType": "uint256",
          "name": "receiveAmount",
          "type": "uint256"
        },
        {
          "indexed": false,
          "internalType": "address",
          "name": "receiver",
          "type": "address"
        }
      ],
      "name": "LogTwoWay",
      "type": "event"
    },
    {
      "anonymous": false,
      "inputs": [
        {
          "indexed": true,
          "internalType": "uint256",
          "name": "withdrawAmount",
          "type": "uint256"
        },
        {
          "indexed": true,
          "internalType": "uint256",
          "name": "fee",
          "type": "uint256"
        }
      ],
      "name": "LogWithdrawSuccess",
      "type": "event"
    },
    {
      "inputs": [],
      "name": "ETH",
      "outputs": [
        {
          "internalType": "address",
          "name": "",
          "type": "address"
        }
      ],
      "stateMutability": "view",
      "type": "function"
    },
    {
      "inputs": [],
      "name": "OVERHEAD",
      "outputs": [
        {
          "internalType": "uint256",
          "name": "",
          "type": "uint256"
        }
      ],
      "stateMutability": "view",
      "type": "function"
    },
    {
      "inputs": [],
      "name": "WETH",
      "outputs": [
        {
          "internalType": "contract IERC20",
          "name": "",
          "type": "address"
        }
      ],
      "stateMutability": "view",
      "type": "function"
    },
    {
      "inputs": [
        {
          "internalType": "contract IConditionalTokens",
          "name": "_conditionalTokens",
          "type": "address"
        },
        {
          "internalType": "contract IFixedProductMarketMaker",
          "name": "_fixedProductMarketMaker",
          "type": "address"
        },
        {
          "internalType": "uint256[]",
          "name": "_positionIds",
          "type": "uint256[]"
        },
        {
          "internalType": "bytes32",
          "name": "_conditionId",
          "type": "bytes32"
        },
        {
          "internalType": "bytes32",
          "name": "_parentCollectionId",
          "type": "bytes32"
        },
        {
          "internalType": "address",
          "name": "_collateralToken",
          "type": "address"
        },
        {
          "internalType": "address",
          "name": "_receiver",
          "type": "address"
        }
      ],
      "name": "action",
      "outputs": [],
      "stateMutability": "nonpayable",
      "type": "function"
    },
    {
      "inputs": [],
      "name": "fetchCurrentGasPrice",
      "outputs": [
        {
          "internalType": "uint256",
          "name": "",
          "type": "uint256"
        }
      ],
      "stateMutability": "view",
      "type": "function"
    },
    {
      "inputs": [],
      "name": "gelatoCore",
      "outputs": [
        {
          "internalType": "contract IGelatoSysAdmin",
          "name": "",
          "type": "address"
        }
      ],
      "stateMutability": "view",
      "type": "function"
    },
    {
      "inputs": [
        {
          "internalType": "address",
          "name": "_sellToken",
          "type": "address"
        },
        {
          "internalType": "uint256",
          "name": "_amountIn",
          "type": "uint256"
        },
        {
          "internalType": "address",
          "name": "_buyToken",
          "type": "address"
        }
      ],
      "name": "getUniswapRate",
      "outputs": [
        {
          "internalType": "uint256",
          "name": "expectedRate",
          "type": "uint256"
        }
      ],
      "stateMutability": "view",
      "type": "function"
    },
    {
      "inputs": [],
      "name": "oracleAggregator",
      "outputs": [
        {
          "internalType": "contract OracleAggregator",
          "name": "",
          "type": "address"
        }
      ],
      "stateMutability": "view",
      "type": "function"
    },
    {
      "inputs": [
        {
          "internalType": "uint256",
          "name": "",
          "type": "uint256"
        },
        {
          "internalType": "address",
          "name": "",
          "type": "address"
        },
        {
          "internalType": "bytes",
          "name": "",
          "type": "bytes"
        },
        {
          "internalType": "enum DataFlow",
          "name": "",
          "type": "uint8"
        },
        {
          "internalType": "uint256",
          "name": "",
          "type": "uint256"
        },
        {
          "internalType": "uint256",
          "name": "",
          "type": "uint256"
        }
      ],
      "name": "termsOk",
      "outputs": [
        {
          "internalType": "string",
          "name": "",
          "type": "string"
        }
      ],
      "stateMutability": "view",
      "type": "function"
    },
    {
      "inputs": [],
      "name": "thisActionAddress",
      "outputs": [
        {
          "internalType": "address",
          "name": "",
          "type": "address"
        }
      ],
      "stateMutability": "view",
      "type": "function"
    },
    {
      "inputs": [],
      "name": "uniRouter",
      "outputs": [
        {
          "internalType": "contract IUniswapV2Router02",
          "name": "",
          "type": "address"
        }
      ],
      "stateMutability": "view",
      "type": "function"
    }
  ],
  "transactionHash": "0x5886ee56c170dcbc84f5d9e01776ced7b3f0cbe4e299b6d317808226fdadb6c8",
  "args": [
    "0x733aDEf4f8346FD96107d8d6605eA9ab5645d632",
    "0xc778417e063141139fce010982780140aa0cd5ab",
    "0x7a250d5630B4cF539739dF2C5dAcb4c659F2488D",
    "0x86486F60db7fbd3348a8087a6d5E103338269471"
  ],
  "solcInputHash": "1317fb4371ef4a6469d841d197618a07",
  "bytecode": "0x6101406040527feeeeeeeeeeeeeeeeeeeeeeeeeeeeeeeeeeeeeeee00000000000000000000000060c0523480156200003657600080fd5b506040516200197c3803806200197c833981016040819052620000599162000091565b30606090811b6080526001600160601b031994811b851660a05292831b841660e05290821b831661010052901b166101205262000111565b60008060008060808587031215620000a7578384fd5b8451620000b481620000f8565b6020860151909450620000c781620000f8565b6040860151909350620000da81620000f8565b6060860151909250620000ed81620000f8565b939692955090935050565b6001600160a01b03811681146200010e57600080fd5b50565b60805160601c60a05160601c60c05160601c60e05160601c6101005160601c6101205160601c6117f16200018b600039806102ab528061085e5250806102cf5280610a4e5250806102f35280610812528061092e525080610287528061088d52508061015d5280610b3452508061026352506117f16000f3fe608060405234801561001057600080fd5b50600436106100a95760003560e01c8063ad5c464811610071578063ad5c4648146100f9578063c825d7d614610101578063d6660f3a14610109578063d679e6ef1461011e578063eb9e712614610131578063fe861b9914610151576100a9565b8063110d8af5146100ae5780637b9b9348146100cc5780638322fff2146100e15780638dffe3f4146100e9578063a0e47bf6146100f1575b600080fd5b6100b6610159565b6040516100c391906116c9565b60405180910390f35b6100d4610261565b6040516100c3919061135d565b6100d4610285565b6100d46102a9565b6100d46102cd565b6100d46102f1565b6100b6610315565b61011c610117366004611045565b61031c565b005b6100b661012c366004610f4c565b610a26565b61014461013f36600461114c565b610b0e565b6040516100c391906113f7565b6100d4610b32565b60007f00000000000000000000000000000000000000000000000000000000000000006001600160a01b031663a4fffd2c6040518163ffffffff1660e01b815260040160206040518083038186803b1580156101b457600080fd5b505afa1580156101c8573d6000803e3d6000fd5b505050506040513d601f19601f820116820180604052508101906101ec9190610f30565b6001600160a01b03166350d25bcd6040518163ffffffff1660e01b815260040160206040518083038186803b15801561022457600080fd5b505afa158015610238573d6000803e3d6000fd5b505050506040513d601f19601f8201168201806040525081019061025c9190611134565b905090565b7f000000000000000000000000000000000000000000000000000000000000000081565b7f000000000000000000000000000000000000000000000000000000000000000081565b7f000000000000000000000000000000000000000000000000000000000000000081565b7f000000000000000000000000000000000000000000000000000000000000000081565b7f000000000000000000000000000000000000000000000000000000000000000081565b6202710081565b60005a9050600086511161034b5760405162461bcd60e51b815260040161034290611610565b60405180910390fd5b6040516370a0823160e01b81526000906001600160a01b038916906370a082319061037a90309060040161135d565b60206040518083038186803b15801561039257600080fd5b505afa1580156103a6573d6000803e3d6000fd5b505050506040513d601f19601f820116820180604052508101906103ca9190611134565b9050600081116103ec5760405162461bcd60e51b815260040161034290611678565b6040516370a0823160e01b81526000906001600160a01b038616906370a082319061041b90309060040161135d565b60206040518083038186803b15801561043357600080fd5b505afa158015610447573d6000803e3d6000fd5b505050506040513d601f19601f8201168201806040525081019061046b9190611134565b60405163701818d360e11b81529091506001600160a01b038a169063e03031a69061049a9085906004016116c9565b600060405180830381600087803b1580156104b457600080fd5b505af11580156104c8573d6000803e3d6000fd5b505050506060885167ffffffffffffffff811180156104e657600080fd5b50604051908082528060200260200182016040528015610510578160200160208202803683370190505b50905060005b895181101561054c573082828151811061052c57fe5b6001600160a01b0390921660209283029190910190910152600101610516565b506040516313849cfd60e21b81526060906001600160a01b038d1690634e1273f49061057e9085908e9060040161138a565b60006040518083038186803b15801561059657600080fd5b505afa1580156105aa573d6000803e3d6000fd5b505050506040513d6000823e601f3d908101601f191682016040526105d29190810190610f8d565b90506000816000815181106105e357fe5b602002602001015190506000600190505b825181101561062a57600083828151811061060b57fe5b6020026020010151905082811015610621578092505b506001016105f4565b506000811161064b5760405162461bcd60e51b815260040161034290611506565b60608b5167ffffffffffffffff8111801561066557600080fd5b5060405190808252806020026020018201604052801561068f578160200160208202803683370190505b50905060005b81518110156106c257806001901b8282815181106106af57fe5b6020908102919091010152600101610695565b508d6001600160a01b0316639e7212ad8a8c8e85876040518663ffffffff1660e01b81526004016106f79594939291906113b8565b600060405180830381600087803b15801561071157600080fd5b505af1158015610725573d6000803e3d6000fd5b5050505050505060006107ba83886001600160a01b03166370a08231306040518263ffffffff1660e01b815260040161075e919061135d565b60206040518083038186803b15801561077657600080fd5b505afa15801561078a573d6000803e3d6000fd5b505050506040513d601f19601f820116820180604052508101906107ae9190611134565b9063ffffffff610b5616565b9050600061080260646107f660886107ea6107d3610159565b6107ea5a6107ae8e6202710063ffffffff610ba116565b9063ffffffff610bc616565b9063ffffffff610c0016565b90506000886001600160a01b03167f00000000000000000000000000000000000000000000000000000000000000006001600160a01b03161415610847575080610959565b604051630f1dcadb60e21b81526001600160a01b037f00000000000000000000000000000000000000000000000000000000000000001690633c772b6c906108b79085907f0000000000000000000000000000000000000000000000000000000000000000908e906004016116d2565b60206040518083038186803b1580156108cf57600080fd5b505afa9250505080156108ff575060408051601f3d908101601f191682019092526108fc91810190611134565b60015b61091b5760405162461bcd60e51b815260040161034290611480565b801561092957809150610957565b6109547f0000000000000000000000000000000000000000000000000000000000000000848c610a26565b91505b505b828111156109795760405162461bcd60e51b81526004016103429061159a565b6109b188828503604051806060016040528060268152602001611796602691396001600160a01b038d1692919063ffffffff610c4216565b6109e73282604051806060016040528060268152602001611796602691396001600160a01b038d1692919063ffffffff610c4216565b6040518190818503907f580b3ddbdb7e1763be4fe15bd9b652772c344101675612e10494d043a2bbb64b90600090a35050505050505050505050505050565b60006060610a348584610c9f565b60405163d06ca61f60e01b81529091506001600160a01b037f0000000000000000000000000000000000000000000000000000000000000000169063d06ca61f90610a8590879085906004016116f1565b60006040518083038186803b158015610a9d57600080fd5b505afa925050508015610ad257506040513d6000823e601f3d908101601f19168201604052610acf9190810190610f8d565b60015b610aee5760405162461bcd60e51b81526004016103429061142a565b80600181518110610afb57fe5b6020026020010151925050509392505050565b6040805180820190915260028152614f4b60f01b6020820152979650505050505050565b7f000000000000000000000000000000000000000000000000000000000000000081565b6000610b9883836040518060400160405280601e81526020017f536166654d6174683a207375627472616374696f6e206f766572666c6f770000815250610d21565b90505b92915050565b600082820183811015610b985760405162461bcd60e51b8152600401610342906114cf565b600082610bd557506000610b9b565b82820282848281610be257fe5b0414610b985760405162461bcd60e51b815260040161034290611559565b6000610b9883836040518060400160405280601a81526020017f536166654d6174683a206469766973696f6e206279207a65726f000000000000815250610d4d565b610c998463a9059cbb60e01b8585604051602401610c61929190611371565b60408051601f198184030181529190526020810180516001600160e01b03166001600160e01b03199093169290921790915283610d84565b50505050565b60408051600280825260608083018452926020830190803683370190505090508281600081518110610ccd57fe5b60200260200101906001600160a01b031690816001600160a01b0316815250508181600181518110610cfb57fe5b60200260200101906001600160a01b031690816001600160a01b03168152505092915050565b60008184841115610d455760405162461bcd60e51b815260040161034291906113f7565b505050900390565b60008183610d6e5760405162461bcd60e51b815260040161034291906113f7565b506000838581610d7a57fe5b0495945050505050565b610d96836001600160a01b0316610eda565b81604051602001610da7919061131c565b60405160208183030381529060405290610dd45760405162461bcd60e51b815260040161034291906113f7565b5060006060846001600160a01b031684604051610df1919061126b565b6000604051808303816000865af19150503d8060008114610e2e576040519150601f19603f3d011682016040523d82523d6000602084013e610e33565b606091505b50915091508183604051602001610e4a9190611287565b60405160208183030381529060405290610e775760405162461bcd60e51b815260040161034291906113f7565b50805115610ed35780806020019051810190610e939190611025565b83604051602001610ea491906112c8565b60405160208183030381529060405290610ed15760405162461bcd60e51b815260040161034291906113f7565b505b5050505050565b6000813f7fc5d2460186f7233c927e7db2dcc703c0e500b653ca82273b7bfad8045d85a4708115801590610f0e5750808214155b949350505050565b8035610b9b8161177d565b803560048110610b9b57600080fd5b600060208284031215610f41578081fd5b8151610b988161177d565b600080600060608486031215610f60578182fd5b8335610f6b8161177d565b9250602084013591506040840135610f828161177d565b809150509250925092565b60006020808385031215610f9f578182fd5b825167ffffffffffffffff811115610fb5578283fd5b80840185601f820112610fc6578384fd5b80519150610fdb610fd683611731565b61170a565b8281528381019082850185850284018601891015610ff7578687fd5b8693505b84841015611019578051835260019390930192918501918501610ffb565b50979650505050505050565b600060208284031215611036578081fd5b81518015158114610b98578182fd5b600080600080600080600060e0888a03121561105f578283fd5b873561106a8161177d565b965060208881013561107b8161177d565b9650604089013567ffffffffffffffff811115611096578485fd5b808a018b601f8201126110a7578586fd5b803591506110b7610fd683611731565b82815283810190828501858502840186018f10156110d3578889fd5b8893505b848410156110f55780358352600193909301929185019185016110d7565b5098505050506060890135945050608088013592506111178960a08a01610f16565b91506111268960c08a01610f16565b905092959891949750929550565b600060208284031215611145578081fd5b5051919050565b600080600080600080600060c0888a031215611166578283fd5b8735965060208801356111788161177d565b9550604088013567ffffffffffffffff80821115611194578485fd5b818a018b601f8201126111a5578586fd5b80359250818311156111b5578586fd5b8b60208483010111156111c6578586fd5b60200196509094506111dd90508960608a01610f21565b92506080880135915060a0880135905092959891949750929550565b6000815180845260208085019450808401835b838110156112315781516001600160a01b03168752958201959082019060010161120c565b509495945050505050565b6000815180845260208085019450808401835b838110156112315781518752958201959082019060010161124f565b6000825161127d818460208701611751565b9190910192915050565b60008251611299818460208701611751565b7f5361666545524332303a206c6f772d6c6576656c2063616c6c206661696c6564920191825250602001919050565b600082516112da818460208701611751565b7f5361666545524332303a204552433230206f7065726174696f6e20646964206e920191825250691bdd081cdd58d8d9595960b21b6020820152602a01919050565b6000825161132e818460208701611751565b7f5361666545524332303a2063616c6c20746f206e6f6e2d636f6e747261637400920191825250601f01919050565b6001600160a01b0391909116815260200190565b6001600160a01b03929092168252602082015260400190565b60006040825261139d60408301856111f9565b82810360208401526113af818561123c565b95945050505050565b600060018060a01b038716825285602083015284604083015260a060608301526113e560a083018561123c565b90508260808301529695505050505050565b6000602082528251806020840152611416816040850160208701611751565b601f01601f19169190910160400192915050565b60208082526036908201527f416374696f6e57697468647261774c69717569646974793a20556e69737761706040820152752b1923b2ba22bc3832b1ba32b22930ba32a2b93937b960511b606082015260800190565b6020808252602f908201527f416374696f6e57697468647261774c69717569646974793a204f7261636c654160408201526e33b3b932b3b0ba37b91022b93937b960891b606082015260800190565b6020808252601b908201527f536166654d6174683a206164646974696f6e206f766572666c6f770000000000604082015260600190565b60208082526033908201527f416374696f6e57697468647261774c69717569646974793a204e6f206f7574636040820152726f6d6520746f6b656e7320746f206d6572676560681b606082015260800190565b60208082526021908201527f536166654d6174683a206d756c7469706c69636174696f6e206f766572666c6f6040820152607760f81b606082015260800190565b60208082526050908201527f416374696f6e57697468647261774c69717569646974793a20496e737566666960408201527f6369656e7420436f6c6c61746572616c20746f2070617920666f72207769746860608201526f323930bb903a3930b739b0b1ba34b7b760811b608082015260a00190565b60208082526042908201527f416374696f6e57697468647261774c69717569646974793a20506f736974696f60408201527f6e20496473206d757374206265206174206c65617374206f66206c656e677468606082015261203160f01b608082015260a00190565b60208082526031908201527f416374696f6e57697468647261774c69717569646974793a204e6f204c5020746040820152706f6b656e7320746f20776974686472617760781b606082015260800190565b90815260200190565b9283526001600160a01b03918216602084015216604082015260600190565b600083825260406020830152610f0e60408301846111f9565b60405181810167ffffffffffffffff8111828210171561172957600080fd5b604052919050565b600067ffffffffffffffff821115611747578081fd5b5060209081020190565b60005b8381101561176c578181015183820152602001611754565b83811115610c995750506000910152565b6001600160a01b038116811461179257600080fd5b5056fe5472616e7366657220436f6c6c61746572616c20746f207265636569766572206661696c6564a26469706673582212208601fd8b5fbf9f1fefe269aa974f2cc8a6eb50b5971e764214fa6979a1c3482e64736f6c634300060a0033",
  "devdoc": {
    "author": "@hilmarx",
    "methods": {},
    "title": "ActionWithdrawLiquidity"
  },
  "userdoc": {
    "methods": {},
    "notice": "Gelato Action that  1) withdraws conditional tokens from FPMM  2) merges position on conditional tokens contract  3) transfers merged tokens back to user"
  },
  "storageLayout": {
    "storage": [],
    "types": null
  }
}