{
  "address": "0x86486F60db7fbd3348a8087a6d5E103338269471",
  "abi": [
    {
      "inputs": [],
      "stateMutability": "nonpayable",
      "type": "constructor"
    },
    {
      "anonymous": false,
      "inputs": [
        {
          "indexed": true,
          "internalType": "address",
          "name": "previousOwner",
          "type": "address"
        },
        {
          "indexed": true,
          "internalType": "address",
          "name": "newOwner",
          "type": "address"
        }
      ],
      "name": "OwnershipTransferred",
      "type": "event"
    },
    {
      "inputs": [
        {
          "internalType": "address",
          "name": "tokenAddressA",
          "type": "address"
        },
        {
          "internalType": "address",
          "name": "tokenAddressB",
          "type": "address"
        },
        {
          "internalType": "address",
          "name": "__tokenPairAddress",
          "type": "address"
        }
      ],
      "name": "addToken",
      "outputs": [],
      "stateMutability": "nonpayable",
      "type": "function"
    },
    {
      "inputs": [
        {
          "internalType": "uint256",
          "name": "amount",
          "type": "uint256"
        },
        {
          "internalType": "address",
          "name": "tokenAddressA",
          "type": "address"
        },
        {
          "internalType": "address",
          "name": "tokenAddressB",
          "type": "address"
        }
      ],
      "name": "getExpectedReturnAmount",
      "outputs": [
        {
          "internalType": "uint256",
          "name": "returnAmount",
          "type": "uint256"
        }
      ],
      "stateMutability": "view",
      "type": "function"
    },
    {
      "inputs": [],
      "name": "isOwner",
      "outputs": [
        {
          "internalType": "bool",
          "name": "",
          "type": "bool"
        }
      ],
      "stateMutability": "view",
      "type": "function"
    },
    {
      "inputs": [],
      "name": "owner",
      "outputs": [
        {
          "internalType": "address",
          "name": "",
          "type": "address"
        }
      ],
      "stateMutability": "view",
      "type": "function"
    },
    {
      "inputs": [],
      "name": "renounceOwnership",
      "outputs": [],
      "stateMutability": "nonpayable",
      "type": "function"
    },
    {
      "inputs": [
        {
          "internalType": "address",
          "name": "newOwner",
          "type": "address"
        }
      ],
      "name": "transferOwnership",
      "outputs": [],
      "stateMutability": "nonpayable",
      "type": "function"
    }
  ],
  "transactionHash": "0x3f5cedcd645c2cd153a766144c9e170e9749b6b40690eb286cc928573635b29c",
  "args": [],
  "solcInputHash": "1317fb4371ef4a6469d841d197618a07",
  "bytecode": "0x608060405234801561001057600080fd5b50600080546001600160a01b03191633178082556040516001600160a01b039190911691907f8be0079c531659141344cd1fd0a4f28419497f9722a3daafe3b4186f6b6457e0908290a3600180546001600160a01b031990811673eeeeeeeeeeeeeeeeeeeeeeeeeeeeeeeeeeeeeeee178255600280548216737354c81fbcb229187480c4f497f945c6a312d5c3178082556001600160a01b0390811660009081526004602090815260408083206008905560067fec5982a11dbfad15d0e8029847c867035bc31d935e7d25b4a9e52b0902f84f128190557f7bfb3ae89469f6e3be7b81750cdf6500ea7cf80a20f54a8c7fc3c9f2acd19de95560127f12bc7a9befd42dc50515e64a09b588f85591f7c2f29aaae76fd28ee02f6cc59b558654841683527ffacc23fb076ecf3064fe02d56f0a9d647c9b971a60b3b5b5b03324469296d89a82528083208054871673031db56e01f82f20803059331dc6bee9b17f7fc91790558454841683527f88af4694236b733dd3b92b328a7d71df8c271946e836ddb165ff6f239f7f1d8482528083208054871673cf0f51ca2cdaecb464eee4227f5295f2384f84ed1790558654841683527f20309d855fb935a1ffbc2dc97e925cd57638d144a03343ea16b65b50d6817ae082528083208054871673cf61d1841b178fe82c8895fe60c2edda083144161790558654841683527f26822d1429e81ba812c5218f96710c8923c00dbf3bebc27a2dcc389411621671825280832080548716738f7c7181ed1a2ba41cfc3f5d064ef91b67daef661790558654841683527fefa8849eb7858f54e14e139ddc849b17731edaec3951c7e33792233afe8c202a80835281842080548816731b39ee86ec5979ba5c322b826b3ecb8c7999169917905585548516845282528083208054871673dbd020caef83efd542f4de03e3cf0c28a4428bd51790558654841683527f077d2af5cd520ecb086fbb74574683158d86b494cb08b9b2b57f618c4c00eb4982528083208054871673ca696a9eb93b81adfe6435759a29ab4cf2991a961790558654841683527fbd1c7c63c97ac8e0c7d61b9489213486e6ffdba4f16327eadc2e20c9446d6a0482528083208054871673d010e899f7ab723ac93f825cdc5aa057669557c21790558654841683527f0af10e02595331f071ee110d62b16cc828f4423c066e0379bd3f7ab0bb11626e8252808320805487167324d9ab51950f3d62e9144fdc2f3135daa6ce8d1b1790558654841683526003808352818420865486168552835281842080548816738a753747a1fa494ec906ce90e9f37563a8af630e1790558554851684527f3e4cfbe419effd7425759b44f2b5fd81f5d1d72a916756ec2350ca9a39dc052483528184208054881673d8bd0a1cb028a31aa859a21a3758685a95de46231790558554851684527fd3b16ad0d0aefb14d7b14a28a10726cb079b5162f8f044d9b8bb8a555f802f2983528184208054881673e96c4407597cd507002df88ff6e0008ab41266ee17905594548416835293815283822086548416835281528382208054861673dca36f27cbc4e38ae16c4e9f99d39b42337f6dcf179055945490911681527fd829a6392eb8c2709cc7594f16ebe33565dc6c8855c68dd47542b6819c577653909352909120805490911673f7bbe4d7d13d600127b6aa132f1dcea301e9c8fc1790556111f4806104e76000396000f3fe608060405234801561001057600080fd5b50600436106100625760003560e01c80633c772b6c14610067578063715018a6146100ad5780638da5cb5b146100b75780638f32d59b146100db578063c6e85b3b146100f7578063f2fde38b1461012f575b600080fd5b61009b6004803603606081101561007d57600080fd5b508035906001600160a01b0360208201358116916040013516610155565b60408051918252519081900360200190f35b6100b56107ea565b005b6100bf61088d565b604080516001600160a01b039092168252519081900360200190f35b6100e361089c565b604080519115158252519081900360200190f35b6100b56004803603606081101561010d57600080fd5b506001600160a01b0381358116916020810135821691604090910135166108ad565b6100b56004803603602081101561014557600080fd5b50356001600160a01b0316610943565b60008084116101ab576040805162461bcd60e51b815260206004820181905260248201527f4f7261636c6541676772656761746f723a20416d6f756e74206973205a65726f604482015290519081900360640190fd5b6001600160a01b0383166101f05760405162461bcd60e51b81526004018080602001828103825260278152602001806111016027913960400191505060405180910390fd5b6001600160a01b0382166102355760405162461bcd60e51b815260040180806020018281038252602781526020018061116f6027913960400191505060405180910390fd5b6001546000906001600160a01b038581169116146102f057836001600160a01b031663313ce5676040518163ffffffff1660e01b815260040160206040518083038186803b15801561028657600080fd5b505afa9250505080156102ab57506040513d60208110156102a657600080fd5b505160015b6102e65760405162461bcd60e51b81526004018080602001828103825260298152602001806111966029913960400191505060405180910390fd5b60ff1690506102f4565b5060125b6001600160a01b03831660009081526004602052604081205461031857600061031a565b835b905061032685856109a8565b60015491965094506001600160a01b038086169116148061035457506002546001600160a01b038581169116145b1561058a576001600160a01b0385811660009081526003602090815260408083208885168452909152902054161561041c576000806103938787610a73565b90925090506001600160a01b0383166103bb576103b6888363ffffffff610b9f16565b6103cb565b6103cb8389836000866001610c01565b94506001600160a01b0383166103e157806103fb565b6001600160a01b0383166000908152600460205260409020545b905061041185600a86900a63ffffffff610ce116565b9450505050506107e3565b6000806104298787610d23565b90925090506001600160a01b03821615801561044c57506001600160a01b038116155b1561045e5760009450505050506107e3565b600061046a8884610a73565b50905060008061047a8985610a73565b90925090506001600160a01b0386166104c6576104c1826104b56104a886600a86900a63ffffffff610b9f16565b8e9063ffffffff610b9f16565b9063ffffffff610ce116565b6104d4565b6104d4868c83848787610c01565b97506001600160a01b0386166104ea5780610504565b6001600160a01b0386166000908152600460205260409020545b9050610521826104b56104a886600a86900a63ffffffff610b9f16565b6001549098506001600160a01b038a811691161461055b5761054d88600a89900a63ffffffff610ce116565b9750505050505050506107e3565b6002546001600160a01b031660009081526004602052604090205461054d908990600a0a63ffffffff610ce116565b6000806105978787610d23565b90925090506001600160a01b0382161580156105ba57506001600160a01b038116155b156105cc5760009450505050506107e3565b806001600160a01b0316826001600160a01b0316141561064e576000806105f38985610a73565b9150915060006106038985610a73565b509050610621816104b56104a886600a87900a63ffffffff610b9f16565b6001549098506001600160a01b038681169116141561055b5761054d88600a89900a63ffffffff610ce116565b6001546001600160a01b03838116911614801561067857506002546001600160a01b038281169116145b156107025760006106898884610a73565b506001546002549192506000916106ac916001600160a01b039081169116610a73565b50905060006106bb8985610a73565b50905060006106d0848463ffffffff610b9f16565b90506106e6826104b58e8463ffffffff610b9f16565b98505050505061041184600a0a86610ce190919063ffffffff16565b6002546001600160a01b03838116911614801561072c57506001546001600160a01b038281169116145b156107de5760008060006107408a86610a73565b6002546001549294509092506000918291610767916001600160a01b039182169116610a73565b90925090506107a7600a82900a6104b58661079b61078b868963ffffffff610f2216565b8790600a0a63ffffffff610b9f16565b9063ffffffff610b9f16565b94505050505060006107b98884610a73565b5090506107d0816104b58c8563ffffffff610b9f16565b96506107e395505050505050565b505050505b9392505050565b6107f261089c565b610843576040805162461bcd60e51b815260206004820181905260248201527f4f776e61626c653a2063616c6c6572206973206e6f7420746865206f776e6572604482015290519081900360640190fd5b600080546040516001600160a01b03909116907f8be0079c531659141344cd1fd0a4f28419497f9722a3daafe3b4186f6b6457e0908390a3600080546001600160a01b0319169055565b6000546001600160a01b031690565b6000546001600160a01b0316331490565b6108b561089c565b610906576040805162461bcd60e51b815260206004820181905260248201527f4f776e61626c653a2063616c6c6572206973206e6f7420746865206f776e6572604482015290519081900360640190fd5b6001600160a01b03928316600090815260036020908152604080832094861683529390529190912080546001600160a01b03191691909216179055565b61094b61089c565b61099c576040805162461bcd60e51b815260206004820181905260248201527f4f776e61626c653a2063616c6c6572206973206e6f7420746865206f776e6572604482015290519081900360640190fd5b6109a581610f64565b50565b6001600160a01b0382166000908152600460205260408120548190158015906109e857506001600160a01b03831660009081526004602052604090205415155b15610a015750506002546001600160a01b031680610a6c565b6001600160a01b03841660009081526004602052604090205415610a335750506002546001600160a01b031681610a6c565b6001600160a01b03831660009081526004602052604090205415610a6657505060025482906001600160a01b0316610a6c565b50829050815b9250929050565b600080826001600160a01b0316846001600160a01b03161415610a9c5750600190506000610a6c565b6001600160a01b03808516600090815260036020908152604080832087851684528252918290205482516350d25bcd60e01b8152925193169283926350d25bcd926004808301939192829003018186803b158015610af957600080fd5b505afa158015610b0d573d6000803e3d6000fd5b505050506040513d6020811015610b2357600080fd5b50516040805163313ce56760e01b815290519194506001600160a01b0383169163313ce56791600480820192602092909190829003018186803b158015610b6957600080fd5b505afa158015610b7d573d6000803e3d6000fd5b505050506040513d6020811015610b9357600080fd5b50519150509250929050565b600082610bae57506000610bfb565b82820282848281610bbb57fe5b0414610bf85760405162461bcd60e51b815260040180806020018281038252602181526020018061114e6021913960400191505060405180910390fd5b90505b92915050565b6001600160a01b03861660009081526004602052604081205481908610610c45576001600160a01b0388166000908152600460205260409020548603600a0a610c65565b6001600160a01b038816600090815260046020526040902054869003600a0a5b6001600160a01b0389166000908152600460205260409020549091508610610cb657610cb1816104b58581610ca489600a8c900a63ffffffff610b9f16565b8c9063ffffffff610b9f16565b610cd5565b610cd58161079b856104b5610ca489600a8c900a63ffffffff610b9f16565b98975050505050505050565b6000610bf883836040518060400160405280601a81526020017f536166654d6174683a206469766973696f6e206279207a65726f000000000000815250611004565b6001600160a01b03828116600090815260036020908152604080832060025485168452909152812054909182911615801590610d8757506001600160a01b038381166000908152600360209081526040808320600254851684529091529020541615155b15610da05750506002546001600160a01b031680610a6c565b6001600160a01b038481166000908152600360209081526040808320600154851684529091529020541615801590610e0057506001600160a01b038381166000908152600360209081526040808320600154851684529091529020541615155b15610e195750506001546001600160a01b031680610a6c565b6001600160a01b038481166000908152600360209081526040808320600154851684529091529020541615801590610e7957506001600160a01b038381166000908152600360209081526040808320600254851684529091529020541615155b15610e985750506001546002546001600160a01b039182169116610a6c565b6001600160a01b038481166000908152600360209081526040808320600254851684529091529020541615801590610ef857506001600160a01b038381166000908152600360209081526040808320600154851684529091529020541615155b15610f175750506002546001546001600160a01b039182169116610a6c565b506000905080610a6c565b6000610bf883836040518060400160405280601e81526020017f536166654d6174683a207375627472616374696f6e206f766572666c6f7700008152506110a6565b6001600160a01b038116610fa95760405162461bcd60e51b81526004018080602001828103825260268152602001806111286026913960400191505060405180910390fd5b600080546040516001600160a01b03808516939216917f8be0079c531659141344cd1fd0a4f28419497f9722a3daafe3b4186f6b6457e091a3600080546001600160a01b0319166001600160a01b0392909216919091179055565b600081836110905760405162461bcd60e51b81526004018080602001828103825283818151815260200191508051906020019080838360005b8381101561105557818101518382015260200161103d565b50505050905090810190601f1680156110825780820380516001836020036101000a031916815260200191505b509250505060405180910390fd5b50600083858161109c57fe5b0495945050505050565b600081848411156110f85760405162461bcd60e51b815260206004820181815283516024840152835190928392604490910191908501908083836000831561105557818101518382015260200161103d565b50505090039056fe4f7261636c6541676772656761746f723a20746f6b656e4164647265737341206973205a65726f4f776e61626c653a206e6577206f776e657220697320746865207a65726f2061646472657373536166654d6174683a206d756c7469706c69636174696f6e206f766572666c6f774f7261636c6541676772656761746f723a20746f6b656e4164647265737342206973205a65726f4f7261636c6541676772656761746f723a2045524332302e646563696d616c73282920726576657274a26469706673582212209ddc681f9bb1bc37bc0b65c83ee517ebaf4605661beaa048f6e816be63501f3464736f6c634300060a0033",
  "devdoc": {
    "methods": {
      "getExpectedReturnAmount(uint256,address,address)": {
        "details": "Get expected return amount for tokenA / tokenB"
      },
      "isOwner()": {
        "details": "Returns true if the caller is the current owner."
      },
      "owner()": {
        "details": "Returns the address of the current owner."
      },
      "renounceOwnership()": {
        "details": "Leaves the contract without owner. It will not be possible to call `onlyOwner` functions anymore. Can only be called by the current owner. NOTE: Renouncing ownership will leave the contract without an owner, thereby removing any functionality that is only available to the owner."
      },
      "transferOwnership(address)": {
        "details": "Transfers ownership of the contract to a new account (`newOwner`). Can only be called by the current owner."
      }
    }
  },
  "userdoc": {
    "methods": {}
  },
  "storageLayout": {
    "storage": [
      {
        "astId": 163,
        "contract": "contracts/OracleAggregator.sol:OracleAggregator",
        "label": "_owner",
        "offset": 0,
        "slot": "0",
        "type": "t_address"
      },
      {
        "astId": 2679,
        "contract": "contracts/OracleAggregator.sol:OracleAggregator",
        "label": "_ETH_ADDRESS",
        "offset": 0,
        "slot": "1",
        "type": "t_address"
      },
      {
        "astId": 2681,
        "contract": "contracts/OracleAggregator.sol:OracleAggregator",
        "label": "_USD_ADDRESS",
        "offset": 0,
        "slot": "2",
        "type": "t_address"
      },
      {
        "astId": 2687,
        "contract": "contracts/OracleAggregator.sol:OracleAggregator",
        "label": "_tokenPairAddress",
        "offset": 0,
        "slot": "3",
        "type": "t_mapping(t_address,t_mapping(t_address,t_address))"
      },
      {
        "astId": 2691,
        "contract": "contracts/OracleAggregator.sol:OracleAggregator",
        "label": "_nrOfDecimalsUSD",
        "offset": 0,
        "slot": "4",
        "type": "t_mapping(t_address,t_uint256)"
      }
    ],
    "types": {
      "t_address": {
        "encoding": "inplace",
        "label": "address",
        "numberOfBytes": "20"
      },
      "t_mapping(t_address,t_address)": {
        "encoding": "mapping",
        "key": "t_address",
        "label": "mapping(address => address)",
        "numberOfBytes": "32",
        "value": "t_address"
      },
      "t_mapping(t_address,t_mapping(t_address,t_address))": {
        "encoding": "mapping",
        "key": "t_address",
        "label": "mapping(address => mapping(address => address))",
        "numberOfBytes": "32",
        "value": "t_mapping(t_address,t_address)"
      },
      "t_mapping(t_address,t_uint256)": {
        "encoding": "mapping",
        "key": "t_address",
        "label": "mapping(address => uint256)",
        "numberOfBytes": "32",
        "value": "t_uint256"
      },
      "t_uint256": {
        "encoding": "inplace",
        "label": "uint256",
        "numberOfBytes": "32"
      }
    }
  }
}