{
  "address": "0x74C0EA021931EDc193db561B096c40908c0d1F8B",
  "abi": [
    {
      "inputs": [],
      "stateMutability": "nonpayable",
      "type": "constructor"
    },
    {
      "anonymous": false,
      "inputs": [
        {
          "indexed": true,
          "internalType": "address",
          "name": "previousOwner",
          "type": "address"
        },
        {
          "indexed": true,
          "internalType": "address",
          "name": "newOwner",
          "type": "address"
        }
      ],
      "name": "OwnershipTransferred",
      "type": "event"
    },
    {
      "inputs": [
        {
          "internalType": "address",
          "name": "tokenAddressA",
          "type": "address"
        },
        {
          "internalType": "address",
          "name": "tokenAddressB",
          "type": "address"
        },
        {
          "internalType": "address",
          "name": "__tokenPairAddress",
          "type": "address"
        }
      ],
      "name": "addToken",
      "outputs": [],
      "stateMutability": "nonpayable",
      "type": "function"
    },
    {
      "inputs": [
        {
          "internalType": "uint256",
          "name": "amount",
          "type": "uint256"
        },
        {
          "internalType": "address",
          "name": "tokenAddressA",
          "type": "address"
        },
        {
          "internalType": "address",
          "name": "tokenAddressB",
          "type": "address"
        }
      ],
      "name": "getExpectedReturnAmount",
      "outputs": [
        {
          "internalType": "uint256",
          "name": "returnAmount",
          "type": "uint256"
        }
      ],
      "stateMutability": "view",
      "type": "function"
    },
    {
      "inputs": [],
      "name": "isOwner",
      "outputs": [
        {
          "internalType": "bool",
          "name": "",
          "type": "bool"
        }
      ],
      "stateMutability": "view",
      "type": "function"
    },
    {
      "inputs": [],
      "name": "owner",
      "outputs": [
        {
          "internalType": "address",
          "name": "",
          "type": "address"
        }
      ],
      "stateMutability": "view",
      "type": "function"
    },
    {
      "inputs": [],
      "name": "renounceOwnership",
      "outputs": [],
      "stateMutability": "nonpayable",
      "type": "function"
    },
    {
      "inputs": [
        {
          "internalType": "address",
          "name": "newOwner",
          "type": "address"
        }
      ],
      "name": "transferOwnership",
      "outputs": [],
      "stateMutability": "nonpayable",
      "type": "function"
    }
  ],
  "transactionHash": "0xd8d10ee25bf21992bb5a1d92644ab5df5b1225bce8150955a30b7222cdb2359a",
  "args": [],
  "solcInputHash": "948a2aed05528420987a51b47f8ee033",
  "bytecode": "0x608060405234801561001057600080fd5b50600080546001600160a01b03191633178082556040516001600160a01b039190911691907f8be0079c531659141344cd1fd0a4f28419497f9722a3daafe3b4186f6b6457e0908290a360087fa3e1be3bae80dbc2d9d59e3f1007e020a4120c48ec921f1671db13e61024a6565560067fce6b0bb3482d6fcd115ad33ec4464c30e4c8b24ec6e3e5aa13819b39c576a85c8190557f2216881abda8ce28bb79ec6ad24ecf589e0594fff84ade38d82ca32ec9eff5c65560127f1f26cc04db5725a6013f9a871c79fcbf894bb366deda2d7526896a3d7f7bf1e68190557f4d5c4a16ba7b47bef58b94762a52ef2c788573f577796e318e97cff8b816d1f88190557f7603c2e212aea471b9df8c95a8681e44424f80d0894bafbc91fb608e816bc0728190557fb12235716996ffd0d21b94afa47a028192faf8ddc5224919b8548ae0fda820f655600180546001600160a01b031990811673eeeeeeeeeeeeeeeeeeeeeeeeeeeeeeeeeeeeeeee17808355600280548316737354c81fbcb229187480c4f497f945c6a312d5c31781556001600160a01b0391821660009081527fa80852e0e925ac55bfae86386962c96e7e4b51db75d65b9850e7df493e986f836020908152604080832080548716736df09e975c830ecae5bd4ed9d90f3a95a4f880121790558354851683527f973e5b8876de315b956f1debf0c0ef72ec216b72ae54b2339abb3745000d259082528083208054871673231e764b44b2c1b7ca171fa8021a24ed520cde109081179091558754861684527fb46c039c313d3424de48693c3b829f444253269fcb0a5c66e3acf74c93e76bb0835281842080548816730d16d4528239e9ee52fa531af613acdb23d88c941790558454861684527fff433ae26813839353d9f863fa4419a962464de66a59fe7f307a719fc91f95138352818420805488167314e613ac84a31f709eadbdf89c6cc390fdc9540a1790558754861684527f20309d855fb935a1ffbc2dc97e925cd57638d144a03343ea16b65b50d6817ae083528184208054881673cf61d1841b178fe82c8895fe60c2edda083144161790558754861684527f26822d1429e81ba812c5218f96710c8923c00dbf3bebc27a2dcc389411621671835281842080548816738f7c7181ed1a2ba41cfc3f5d064ef91b67daef661790558754861684527fefa8849eb7858f54e14e139ddc849b17731edaec3951c7e33792233afe8c202a80845282852080548916731b39ee86ec5979ba5c322b826b3ecb8c7999169917905585548716855283528184208054881673dbd020caef83efd542f4de03e3cf0c28a4428bd51790558754861684527f077d2af5cd520ecb086fbb74574683158d86b494cb08b9b2b57f618c4c00eb4983528184208054881673ca696a9eb93b81adfe6435759a29ab4cf2991a961790558754861684527fbd1c7c63c97ac8e0c7d61b9489213486e6ffdba4f16327eadc2e20c9446d6a0483528184208054881673d010e899f7ab723ac93f825cdc5aa057669557c21790558754861684527f0af10e02595331f071ee110d62b16cc828f4423c066e0379bd3f7ab0bb11626e8352818420805488167324d9ab51950f3d62e9144fdc2f3135daa6ce8d1b1790558754861684526003808452828520865488168652845282852080548916735f4ec3df9cbd43714fe2740f5e3616155c5b84191790558854871685527f7cc36f5551d873f1290a5648bf92337492154331ce8cda4d2e91e5e986dcec9080855283862080548a1673656c0544ef4c98a6a98491833a89204abb045d6b17905586548816865284528285208054891673f8ff43e991a81e6ec886a3d281a2c6cc19ae70fc1790558554871685527ff521275bc127671174f9c4bab19091b46c0a61f91ea1d386a327c1b501baa44f80855283862080548a16732c1d072e956affc0d435cb7ac38ef18d24d9127c17905589548816865284528285208054891673dc530d9457755926550b59e8eccdae76241815571790558854871685527f2dc7174cc8b9285b1cbbdf6522f42756275eac0aa93729e4cb298cf0c013ce3e80855283862080548a1673160ac928a16c93ed4895c2de6f81ecce9a7eb7b41790558654881686528452828520805489169092179091558754861684527f6e0f274c9891bf805af9584949beb2c50902939343340589c2ded33fd88cc5928352818420805488167382a44d92d6c329826dc557c5e1be6ebec5d5feb91790558754861684527f094dfe459bcd5519fe9d8030527ba39823e977c1d47ebcff2508bb637bdacb6d8352818420805488167324551a8fb2a7211a25a17b1481f043a8a8adc7f21790558754861684527feca1a52da4922a4ac7bbe851b66f23a65fc75b0b8ba6027f4834f438afb7fb84835281842080548816739cb2a01a7e64992d32a34db7ceea4c919c391f6a1790558754861684527fb9ab3ce28be9f61cebc288432c71f496758bcc55de6958b09f5a8cb15650443180845282852080548916733147d7203354dc06d9fd350c7a2437bca92387a4179055855487168552835281842080548816730f59666ede214281e956cb3b2d0d69415aff4a011790558754861684527ff91b8063a152d1f63e07fedc6b8f916b00499b0a2d273a410d6bdbf9888c918883528184208054881673d4ce430c3b67b3e2f7026d86e7128588629e24551790558754861684527fd660b4bfc4ce33e7a01ba833fd77ea893e70c25b5142973f539139966dd0549f808452828520805489167379291a9d692df95334b1a0b3b4ae6bc606782f8c17905585548716855283528184208054881673dc3ea94cd0ac27d9a86c180091e7f78c683d36991790558454861684527fd59eade154448560c086c956d5cc3d593c6e38668a02f562933d6500ed4745d183528184208054881673fb0cfd6c19e25db4a08d8a204a387cea48cc138f1790558754861684527fcef921462622ca5ee7e9c024f66b80d03c849f18d78a40c20ff9b0cd1bfac6d983528184208054881673d6aa3d25116d8da79ea0246c4826eb951872e02e17905593548516835292815282822086548516835281528282208054861673986b5e1e1755e3c2440e960477f25201b0a8bbd41790558554841682527fe49769d52fd6e831cb12dcee0c526cc0af3053f2281ba01ca0d3e6c3b8a4df7181528282208054861673cebd2026d3c99f2a7ce028acf372c154ab4638a91790558554841682527f9d12218890ea51910ba8d80baca8b3844466f18f5418e2bd5981c8457ce0f1b3815282822080548616737c5d4f8345e66f68099581db340cd65b078c41f4179055945490921682527fd829a6392eb8c2709cc7594f16ebe33565dc6c8855c68dd47542b6819c577653909352919091208054909116732da4983a622a8498bb1a21fae9d8f6c6649399621790556111f4806109c86000396000f3fe608060405234801561001057600080fd5b50600436106100625760003560e01c80633c772b6c14610067578063715018a6146100ad5780638da5cb5b146100b75780638f32d59b146100db578063c6e85b3b146100f7578063f2fde38b1461012f575b600080fd5b61009b6004803603606081101561007d57600080fd5b508035906001600160a01b0360208201358116916040013516610155565b60408051918252519081900360200190f35b6100b56107ea565b005b6100bf61088d565b604080516001600160a01b039092168252519081900360200190f35b6100e361089c565b604080519115158252519081900360200190f35b6100b56004803603606081101561010d57600080fd5b506001600160a01b0381358116916020810135821691604090910135166108ad565b6100b56004803603602081101561014557600080fd5b50356001600160a01b0316610943565b60008084116101ab576040805162461bcd60e51b815260206004820181905260248201527f4f7261636c6541676772656761746f723a20416d6f756e74206973205a65726f604482015290519081900360640190fd5b6001600160a01b0383166101f05760405162461bcd60e51b81526004018080602001828103825260278152602001806111016027913960400191505060405180910390fd5b6001600160a01b0382166102355760405162461bcd60e51b815260040180806020018281038252602781526020018061116f6027913960400191505060405180910390fd5b6001546000906001600160a01b038581169116146102f057836001600160a01b031663313ce5676040518163ffffffff1660e01b815260040160206040518083038186803b15801561028657600080fd5b505afa9250505080156102ab57506040513d60208110156102a657600080fd5b505160015b6102e65760405162461bcd60e51b81526004018080602001828103825260298152602001806111966029913960400191505060405180910390fd5b60ff1690506102f4565b5060125b6001600160a01b03831660009081526004602052604081205461031857600061031a565b835b905061032685856109a8565b60015491965094506001600160a01b038086169116148061035457506002546001600160a01b038581169116145b1561058a576001600160a01b0385811660009081526003602090815260408083208885168452909152902054161561041c576000806103938787610a73565b90925090506001600160a01b0383166103bb576103b6888363ffffffff610b9f16565b6103cb565b6103cb8389836000866001610c01565b94506001600160a01b0383166103e157806103fb565b6001600160a01b0383166000908152600460205260409020545b905061041185600a86900a63ffffffff610ce116565b9450505050506107e3565b6000806104298787610d23565b90925090506001600160a01b03821615801561044c57506001600160a01b038116155b1561045e5760009450505050506107e3565b600061046a8884610a73565b50905060008061047a8985610a73565b90925090506001600160a01b0386166104c6576104c1826104b56104a886600a86900a63ffffffff610b9f16565b8e9063ffffffff610b9f16565b9063ffffffff610ce116565b6104d4565b6104d4868c83848787610c01565b97506001600160a01b0386166104ea5780610504565b6001600160a01b0386166000908152600460205260409020545b9050610521826104b56104a886600a86900a63ffffffff610b9f16565b6001549098506001600160a01b038a811691161461055b5761054d88600a89900a63ffffffff610ce116565b9750505050505050506107e3565b6002546001600160a01b031660009081526004602052604090205461054d908990600a0a63ffffffff610ce116565b6000806105978787610d23565b90925090506001600160a01b0382161580156105ba57506001600160a01b038116155b156105cc5760009450505050506107e3565b806001600160a01b0316826001600160a01b0316141561064e576000806105f38985610a73565b9150915060006106038985610a73565b509050610621816104b56104a886600a87900a63ffffffff610b9f16565b6001549098506001600160a01b038681169116141561055b5761054d88600a89900a63ffffffff610ce116565b6001546001600160a01b03838116911614801561067857506002546001600160a01b038281169116145b156107025760006106898884610a73565b506001546002549192506000916106ac916001600160a01b039081169116610a73565b50905060006106bb8985610a73565b50905060006106d0848463ffffffff610b9f16565b90506106e6826104b58e8463ffffffff610b9f16565b98505050505061041184600a0a86610ce190919063ffffffff16565b6002546001600160a01b03838116911614801561072c57506001546001600160a01b038281169116145b156107de5760008060006107408a86610a73565b6002546001549294509092506000918291610767916001600160a01b039182169116610a73565b90925090506107a7600a82900a6104b58661079b61078b868963ffffffff610f2216565b8790600a0a63ffffffff610b9f16565b9063ffffffff610b9f16565b94505050505060006107b98884610a73565b5090506107d0816104b58c8563ffffffff610b9f16565b96506107e395505050505050565b505050505b9392505050565b6107f261089c565b610843576040805162461bcd60e51b815260206004820181905260248201527f4f776e61626c653a2063616c6c6572206973206e6f7420746865206f776e6572604482015290519081900360640190fd5b600080546040516001600160a01b03909116907f8be0079c531659141344cd1fd0a4f28419497f9722a3daafe3b4186f6b6457e0908390a3600080546001600160a01b0319169055565b6000546001600160a01b031690565b6000546001600160a01b0316331490565b6108b561089c565b610906576040805162461bcd60e51b815260206004820181905260248201527f4f776e61626c653a2063616c6c6572206973206e6f7420746865206f776e6572604482015290519081900360640190fd5b6001600160a01b03928316600090815260036020908152604080832094861683529390529190912080546001600160a01b03191691909216179055565b61094b61089c565b61099c576040805162461bcd60e51b815260206004820181905260248201527f4f776e61626c653a2063616c6c6572206973206e6f7420746865206f776e6572604482015290519081900360640190fd5b6109a581610f64565b50565b6001600160a01b0382166000908152600460205260408120548190158015906109e857506001600160a01b03831660009081526004602052604090205415155b15610a015750506002546001600160a01b031680610a6c565b6001600160a01b03841660009081526004602052604090205415610a335750506002546001600160a01b031681610a6c565b6001600160a01b03831660009081526004602052604090205415610a6657505060025482906001600160a01b0316610a6c565b50829050815b9250929050565b600080826001600160a01b0316846001600160a01b03161415610a9c5750600190506000610a6c565b6001600160a01b03808516600090815260036020908152604080832087851684528252918290205482516350d25bcd60e01b8152925193169283926350d25bcd926004808301939192829003018186803b158015610af957600080fd5b505afa158015610b0d573d6000803e3d6000fd5b505050506040513d6020811015610b2357600080fd5b50516040805163313ce56760e01b815290519194506001600160a01b0383169163313ce56791600480820192602092909190829003018186803b158015610b6957600080fd5b505afa158015610b7d573d6000803e3d6000fd5b505050506040513d6020811015610b9357600080fd5b50519150509250929050565b600082610bae57506000610bfb565b82820282848281610bbb57fe5b0414610bf85760405162461bcd60e51b815260040180806020018281038252602181526020018061114e6021913960400191505060405180910390fd5b90505b92915050565b6001600160a01b03861660009081526004602052604081205481908610610c45576001600160a01b0388166000908152600460205260409020548603600a0a610c65565b6001600160a01b038816600090815260046020526040902054869003600a0a5b6001600160a01b0389166000908152600460205260409020549091508610610cb657610cb1816104b58581610ca489600a8c900a63ffffffff610b9f16565b8c9063ffffffff610b9f16565b610cd5565b610cd58161079b856104b5610ca489600a8c900a63ffffffff610b9f16565b98975050505050505050565b6000610bf883836040518060400160405280601a81526020017f536166654d6174683a206469766973696f6e206279207a65726f000000000000815250611004565b6001600160a01b03828116600090815260036020908152604080832060025485168452909152812054909182911615801590610d8757506001600160a01b038381166000908152600360209081526040808320600254851684529091529020541615155b15610da05750506002546001600160a01b031680610a6c565b6001600160a01b038481166000908152600360209081526040808320600154851684529091529020541615801590610e0057506001600160a01b038381166000908152600360209081526040808320600154851684529091529020541615155b15610e195750506001546001600160a01b031680610a6c565b6001600160a01b038481166000908152600360209081526040808320600154851684529091529020541615801590610e7957506001600160a01b038381166000908152600360209081526040808320600254851684529091529020541615155b15610e985750506001546002546001600160a01b039182169116610a6c565b6001600160a01b038481166000908152600360209081526040808320600254851684529091529020541615801590610ef857506001600160a01b038381166000908152600360209081526040808320600154851684529091529020541615155b15610f175750506002546001546001600160a01b039182169116610a6c565b506000905080610a6c565b6000610bf883836040518060400160405280601e81526020017f536166654d6174683a207375627472616374696f6e206f766572666c6f7700008152506110a6565b6001600160a01b038116610fa95760405162461bcd60e51b81526004018080602001828103825260268152602001806111286026913960400191505060405180910390fd5b600080546040516001600160a01b03808516939216917f8be0079c531659141344cd1fd0a4f28419497f9722a3daafe3b4186f6b6457e091a3600080546001600160a01b0319166001600160a01b0392909216919091179055565b600081836110905760405162461bcd60e51b81526004018080602001828103825283818151815260200191508051906020019080838360005b8381101561105557818101518382015260200161103d565b50505050905090810190601f1680156110825780820380516001836020036101000a031916815260200191505b509250505060405180910390fd5b50600083858161109c57fe5b0495945050505050565b600081848411156110f85760405162461bcd60e51b815260206004820181815283516024840152835190928392604490910191908501908083836000831561105557818101518382015260200161103d565b50505090039056fe4f7261636c6541676772656761746f723a20746f6b656e4164647265737341206973205a65726f4f776e61626c653a206e6577206f776e657220697320746865207a65726f2061646472657373536166654d6174683a206d756c7469706c69636174696f6e206f766572666c6f774f7261636c6541676772656761746f723a20746f6b656e4164647265737342206973205a65726f4f7261636c6541676772656761746f723a2045524332302e646563696d616c73282920726576657274a264697066735822122042b8376e50f98893b53e341d9cd99fafa996c6d6e642fef1ee39bd06e247e51a64736f6c634300060a0033",
  "devdoc": {
    "methods": {
      "getExpectedReturnAmount(uint256,address,address)": {
        "details": "Get expected return amount for tokenA / tokenB"
      },
      "isOwner()": {
        "details": "Returns true if the caller is the current owner."
      },
      "owner()": {
        "details": "Returns the address of the current owner."
      },
      "renounceOwnership()": {
        "details": "Leaves the contract without owner. It will not be possible to call `onlyOwner` functions anymore. Can only be called by the current owner. NOTE: Renouncing ownership will leave the contract without an owner, thereby removing any functionality that is only available to the owner."
      },
      "transferOwnership(address)": {
        "details": "Transfers ownership of the contract to a new account (`newOwner`). Can only be called by the current owner."
      }
    }
  },
  "userdoc": {
    "methods": {}
  },
  "storageLayout": {
    "storage": [
      {
        "astId": 163,
        "contract": "contracts/OracleAggregator.sol:OracleAggregator",
        "label": "_owner",
        "offset": 0,
        "slot": "0",
        "type": "t_address"
      },
      {
        "astId": 3405,
        "contract": "contracts/OracleAggregator.sol:OracleAggregator",
        "label": "_ETH_ADDRESS",
        "offset": 0,
        "slot": "1",
        "type": "t_address"
      },
      {
        "astId": 3407,
        "contract": "contracts/OracleAggregator.sol:OracleAggregator",
        "label": "_USD_ADDRESS",
        "offset": 0,
        "slot": "2",
        "type": "t_address"
      },
      {
        "astId": 3413,
        "contract": "contracts/OracleAggregator.sol:OracleAggregator",
        "label": "_tokenPairAddress",
        "offset": 0,
        "slot": "3",
        "type": "t_mapping(t_address,t_mapping(t_address,t_address))"
      },
      {
        "astId": 3417,
        "contract": "contracts/OracleAggregator.sol:OracleAggregator",
        "label": "_nrOfDecimalsUSD",
        "offset": 0,
        "slot": "4",
        "type": "t_mapping(t_address,t_uint256)"
      }
    ],
    "types": {
      "t_address": {
        "encoding": "inplace",
        "label": "address",
        "numberOfBytes": "20"
      },
      "t_mapping(t_address,t_address)": {
        "encoding": "mapping",
        "key": "t_address",
        "label": "mapping(address => address)",
        "numberOfBytes": "32",
        "value": "t_address"
      },
      "t_mapping(t_address,t_mapping(t_address,t_address))": {
        "encoding": "mapping",
        "key": "t_address",
        "label": "mapping(address => mapping(address => address))",
        "numberOfBytes": "32",
        "value": "t_mapping(t_address,t_address)"
      },
      "t_mapping(t_address,t_uint256)": {
        "encoding": "mapping",
        "key": "t_address",
        "label": "mapping(address => uint256)",
        "numberOfBytes": "32",
        "value": "t_uint256"
      },
      "t_uint256": {
        "encoding": "inplace",
        "label": "uint256",
        "numberOfBytes": "32"
      }
    }
  }
}